:020000040800F2
:100000004807002089010008A315000825150008ED
:10001000A1150008690400089317000800000000FB
:10002000000000000000000000000000A71500080C
:10003000A304000800000000A5150008A915000889
:10004000A3010008A3010008A3010008A301000800
:10005000A3010008A3010008A3010008A3010008F0
:10006000A3010008A3010008A30100086D04000813
:10007000A3010008A3010008A3010008A3010008D0
:10008000A3010008A3010008A3010008A3010008C0
:10009000A3010008A3010008A3010008A3010008B0
:1000A000A3010008A3010008A3010008A3010008A0
:1000B000A3010008A3010008A3010008A301000890
:1000C000A3010008A3010008A3010008A301000880
:1000D000A3010008A3010008A3010008A301000870
:1000E000A3010008A3010008A301000800F002F822
:1000F00000F03AF80AA090E8000C82448344AAF188
:100100000107DA4501D100F02FF8AFF2090EBAE885
:100110000F0013F0010F18BFFB1A43F0010318473B
:10012000F41D0000141E0000103A24BF78C878C1E6
:10013000FAD8520724BF30C830C144BF04680C60ED
:10014000704700000023002400250026103A28BF35
:1001500078C1FBD8520728BF30C148BF0B60704739
:100160001FB51FBD10B510BD00F08EF81146FFF78A
:10017000F7FF01F0EBFB00F0C0F803B4FFF7F2FF6C
:1001800003BC00F0C7F80000094880470948004751
:10019000FEE7FEE7FEE7FEE7FEE7FEE7FEE7FEE737
:1001A000FEE7FEE704480549054A064B7047000094
:1001B00019160008ED00000848010020480700203B
:1001C00048030020480300200FB4044910B503AAD7
:1001D000029800F02FF810BC5DF814FB140000200A
:1001E0004FF0000200B5134694469646203922BFD0
:1001F000A0E80C50A0E80C50B1F12001BFF4F7AF1B
:10020000090728BFA0E80C5048BF0CC05DF804EBFC
:10021000890028BF40F8042B08BF704748BF20F86A
:10022000022B11F0804F18BF00F8012B7047704768
:1002300070477047074B70B50D467B4400F011F8CE
:100240000446284601F074FB10B14FF0FF3070BD3A
:10025000204670BDF716000001694A1C026108784B
:10026000704700B58FB0CDE90131002105910549F6
:100270007944CDE903101146684600F02AF80FB022
:1002800000BD0000E5FFFFFF754600F03FF8AE46F9
:1002900005006946534620F00700854618B020B592
:1002A000FFF780FFBDE820404FF000064FF0000749
:1002B0004FF000084FF0000B21F00701AC46ACE80E
:1002C000C009ACE8C009ACE8C009ACE8C0098D467B
:1002D00070472DE9F04106460024D6E90170F56823
:1002E0008046304603E04146B847641C3046A84784
:1002F0000028F8D12046BDE8F08110B50446AFF3E0
:1003000000802046BDE81040FFF737BF0048704727
:10031000E400002001491820ABBEFEE726000200E1
:100320007047000070B5044600688168C943C9077A
:1003300017D1816821F00101816000F0A5FC05461C
:100340000AE000BF00F0A0FC401B022804D920688E
:100350008068C043C00706D020688068C043C007DB
:10036000F0D0002070BDA06A40F01000A062E06AEA
:1003700040F00100E062012070BD10B50146406A06
:10038000826A12F0500F05D0006A026BBDE810407F
:1003900008461047816A41F40071816201688968EA
:1003A000C1F3424107290CD1017B51B9816A21F483
:1003B00080718162816AC90403D4816A41F00101BC
:1003C000816200F0EFF810BD10B5406A816A41F01B
:1003D00040018162C16A41F00401C16200F0E4F8A9
:1003E00010BD10B5406A00F0DEF810BDF8B500266B
:1003F0000446009600688168C943C9072DD081680A
:1004000041F001018160164816490068B0FBF1F027
:1004100000E0401E00900028FBD100F035FC0546AE
:1004200016E000BF00F030FC401B022810D9206805
:100430008068C043C0070BD0A06A40F01000A062E3
:10044000E06A40F00100E06284F824600120F8BD19
:1004500020688068C043C007E4D10020F8BD0000D8
:100460002400002040420F00FEE70000014800F099
:10047000F9B90000A000002030B590F840500124E8
:10048000AC40C56B6C60046863604368102B036804
:1004900003D099600068C26030BD9A600068C16096
:1004A00030BD704772B6FEE7F8B50024009490F8AE
:1004B00024202546012A12D0012280F824204A68EF
:1004C0001F23072A0DD20668776B521E02EB8202A9
:1004D00093409F430B6893401F43776319E00220CA
:1004E000F8BD06680D2A0AD2376BD21F02EB8202D2
:1004F00093409F430B6893401F43376309E0F76ABB
:100500000D3A02EB820293409F430B6893401F43D6
:10051000F7620A68072306680A2A0AD3F7680A3AC4
:1005200002EB420293409F438B6893401F43F76066
:1005300008E0376902EB420293409F438B68934087
:100540001F4337610A68102A01D0112A20D1124BAB
:1005500002689A4217D193681B0219D4936843F436
:10056000000393600968102912D10C490C4A0968EC
:10057000B1FBF2F101EB8101490000E0491E00915D
:100580000029FBD104E0816A41F02001816201244D
:1005900080F824502046F8BD0024014024000020AB
:1005A00040420F0070477047704700002DE9F0414E
:1005B0004FF0000704003D467ED0A06A002628B90F
:1005C000E66284F82460204600F07EF82046FFF7BB
:1005D000A9FEA16AC90600D420B1A06A40F01000AB
:1005E000A06269E0A16A21F4885141F00201A16290
:1005F0006268E169237B0A4347EA43010A43A16831
:100600004FF48077B94209D0012907D05FF000018B
:1006100094F814C0BCF1010F02D00AE03946F7E7A4
:10062000F3B1A36A43F02003A362E36A43F001033A
:10063000E3622368D3F804C02CF4694C4CEA010C43
:10064000C3F804C021688B68DFF870C003EA0C03AC
:1006500013438B60A168B9420BD0012909D00CE08B
:10066000DFF85CC0A3690CEB43330B4343F4006138
:10067000DFE7218A0D05A5F580152168CB6A23F4F3
:1006800070032B43CB62216889680E4B194091425D
:1006900008D1E662A16A21F0020141F00101A162E4
:1006A000BDE8F081A06A20F0020040F01000A062D6
:1006B000E06A40F00100E0620120F1E7FDF7E1FFB0
:1006C00000E0FFFFFE0E1FFF70B586B00025064656
:1006D000009501950295039500681A4988422ED12C
:1006E0001949886940F400708861886900F40070D5
:1006F0000490886940F0040088618869694600F0C8
:100700000400049007200090032001900F4800F09F
:10071000CBF9104C0E48C4E900058020C4E9025012
:1007200040002061800060612020C4E90605204669
:1007300000F042F908B1FFF7B5FE3462666206B018
:1007400070BD00000024014000100240000801407C
:1007500008000240A00000202DE9F0478946044629
:100760003B4900683B4F0E1D9046884201D0B8427D
:1007700007D1306810F4702F03D001252846BDE85A
:10078000F08794F8240001280CD0012084F824007C
:100790002046FFF72BFE05004FF0000004D084F840
:1007A0002400EBE70220EAE7A16A40F601629143E8
:1007B00041F48071A1622168B94218D1326812F403
:1007C000702F14D0A16A41F48011A16231684905EB
:1007D00005D5A16A21F4005141F48051A162A16ABA
:1007E000C9040AD5E16A21F00601E16206E0A26AC5
:1007F00022F48012A2624968E9E7E06284F82400EA
:10080000216A15488862216A1448C862216A14481E
:10081000086321686FF0020008602068816841F475
:1008200080718160216843464A464C31206A00F05D
:10083000F1F820688168C1F342410729816803D03B
:1008400041F48011816099E741F4A001FAE70000CA
:1008500000240140002801407B030008E303000856
:10086000C90300082DE9F05FC16B0C6801680B68D3
:10087000D0F840C0042202FA0CF2494DDFF824A15E
:10088000494E4A4FDFF828B1DFF828E122422CD048
:100890005A072AD50A68920603D40A6822F004028D
:1008A0000A600168A94201D1042219E0514501D131
:1008B000402215E0B14202D14FF4806210E0B9420B
:1008C00002D14FF480420BE0594502D14FF480220F
:1008D00006E0714502D14FF4800201E04FF08062E2
:1008E0002F4908394A60C16A3BE04FF0020808FA14
:1008F0000CF818EA040F4FF000094FF0010235D050
:100900005FEA837832D50B689B0605D40B6823F029
:100910000A030B6080F821200168A94201D102225C
:1009200019E0514501D1202215E0B14202D14FF426
:10093000007210E0B94202D14FF400520BE0594569
:1009400002D14FF4003206E0714502D14FF400129B
:1009500001E04FF00072124908394A6080F8209097
:10096000816A00291AD0BDE8F05F0847082505FA1A
:100970000CF5254212D01B0710D50B6823F00E038F
:100980000B6090F84010C36B02FA01F1596082636A
:1009900080F8212080F82090016BE2E7BDE8F09F0D
:1009A000080002401C0002403000024044000240A7
:1009B000580002406C00024030B528B308C8134903
:1009C00014221944B1FBF2F18900C163104981631B
:1009D000022141771A6843F6F0718A43D0E9001486
:1009E0002143D0E902452C43214304692143446952
:1009F000214384692143114319600021416301228D
:100A000042770177084630BD012030BDF8FFFDBFB9
:100A10000000024070B5044690F82000002501282F
:100A20000CD0012084F8200094F821600020012ED1
:100A300006D084F820000225284670BD022070BD33
:100A4000022684F82160A0632068066826F001066B
:100A500006602046FFF710FDE06A00282068016864
:100A600002D041F00E0106E021F00401016020688F
:100A7000016841F00A0101602068016841F001014C
:100A80000160D9E770B5044600F0FEF80546601C29
:100A900002D004480078044400F0F6F8401BA0425D
:100AA000FAD370BD180000202DE9F84FDFF8B89197
:100AB0000024A9F1040B23460F2709F1040AABF126
:100AC000040EC9E00125A5402A40AA427DD1674E07
:100AD000D1F804C0ACEB0608B44532D014DCBCF14C
:100AE000030F3AD009DCBCF1000F2AD0BCF1010F92
:100AF0001CD0BCF1020F31D11DE0BCF1110F17D099
:100B0000BCF1120F2AD119E0B8F5881F19D006DC04
:100B1000B8F5803F15D0B8F5801F1FD111E0B8F5AA
:100B2000001F0ED0B8F5041F18D10AE0CB6815E0FD
:100B3000CB681B1D12E0CB6808330FE0CB680C3389
:100B40000CE08B682BB1012B4FF0080303D04561FB
:100B500004E0042302E0056100E00023FF2A01D83D
:100B6000064601E000F104064FEA840501D9A5F12B
:100B70002005D6F8008007FA05FC28EA0C0803FADD
:100B800005F548EA0508C6F800804D68ED0062D515
:100B9000374DAE6946F00106AE61AD6924F003063B
:100BA00005F001050095334D06EB050CDCF8085007
:100BB000A607360F07FA06F825EA0805DFF8B88019
:100BC000404503D14FF0000817E044E0DFF8AC8067
:100BD000404502D14FF001080FE0DFF8A480404506
:100BE00002D14FF0020808E0DFF89880404502D1BA
:100BF0004FF0030801E04FF0040808FA06F848EA4D
:100C00000508CCF808804D68D9F80060ED024D4623
:100C100001D5164300E096432E604D68DAF8006077
:100C2000AD02554601D5164300E096432E604D684F
:100C3000DBF80060AD035D4601D5164300E0964346
:100C40002E604D68DEF80060ED03754601D5164351
:100C500000E096432E60641C0D682A46E5407FF450
:100C600031AFBDE8F88F000008040140000011100A
:100C7000001002400000014000080140000C01404B
:100C800000100140001401400148806870470000D6
:100C90001800002002488168027811448160704782
:100CA00018000020074810B5016841F010010160EC
:100CB000032000F075F80F2000F006F800F024F88B
:100CC000002010BD0020024070B50D4D04464FF4C9
:100CD0007A712878B1FBF0F00A490968B1FBF0F0AD
:100CE00000F052FB48B9102C07D200222146501EBA
:100CF00000F036F800206C6070BD012070BD00006F
:100D000018000020240000200C4808B5816941F03B
:100D100001018161816901F001010091C16941F026
:100D20008051C161C06900F0805000900448416862
:100D300021F0E06141F00071416008BD0010024007
:100D400000000140002809DB00F01F020121914052
:100D50004009800000F1E020C0F800117047000059
:100D6000F0B40E4B1B680C46C3F30223C3F1070516
:100D7000042D00D90425191D072901D2002300E004
:100D8000DB1E012606FA05F1491E214099409E40CE
:100D9000761E16403143F0BC00F0FCBC0CED00E0C8
:100DA000064900F0070208684FF6FF03184040EAC2
:100DB0000220034A10430860704700000CED00E079
:100DC0000000FA052DE9F84305460078354CC007C8
:100DD00054D0E0690026C00008D4E06940F080509B
:100DE000E061E069012600F0805000902E48016823
:100DF000C90512D40168804641F480710160FFF793
:100E000043FF074605E000BFFFF73EFFC01B642815
:100E100023D8D8F80000C005F6D5206A10F4407039
:100E200021D0A98801F4407181421CD0206A1F4959
:100E3000012220F440700A6000220A602062C0078C
:100E400011D0FFF721FF074641F2883808E000BFC4
:100E5000FFF71AFFC11B414502D90320BDE8F88303
:100E6000206A8007F4D5206A696820F4407008433E
:100E700020621EB1E06920F08050E0612878800790
:100E800005D56068A96820F4404008436060287870
:100E9000C00605D56068E96820F4800008436060FA
:100EA0000020DBE700100240007000404004424296
:100EB0002DE9F0470F46050061D0434E306800F041
:100EC0000700B84209D2306820F00700384330608C
:100ED000306800F00700B84251D128683B4C8107C8
:100EE00012D5400703D5606840F4E0606060287860
:100EF000000703D5606840F4605060606068A968CE
:100F000020F0F000084360602878C00728D06868A7
:100F1000012810D02168022810D0890700292EDA74
:100F2000616821F0030101436160FFF7ADFE804677
:100F300041F288390DE021688903EFE78901EDE787
:100F4000FFF7A2FEA0EB0801494502D90320BDE846
:100F5000F0876068696800F00C00B0EB810FEFD19A
:100F6000306800F00700B8420BD9306820F0070065
:100F700038433060306800F00700B84201D00120EB
:100F8000E5E72878400705D56068E96820F4E06067
:100F9000084360602878000706D56068296920F456
:100FA000605040EAC100606000F038F86168084AAB
:100FB000C1F30311515CC840064908600648006847
:100FC000FFF782FE0020C2E700200240001002402E
:100FD000FC1E0008240000201C00002004480549D5
:100FE00000684968044AC1F30221515CC840704757
:100FF00024000020001002400C1F0008044805498E
:1010000000684968044AC1F3C221515CC840704776
:1010100024000020001002400C1F00080E4A5168F6
:101020000E4801F00C03042B11D0082B0FD10C48F3
:10103000C1F38343C903C05C0AD55168084AC1F3B0
:101040004041921E515C054A5043B0FBF1F070479D
:1010500004494843704700000010024000127A0023
:10106000EC1E000800093D002DE9F84F040070D087
:101070002078C04DC00749D06868C0F381000128BE
:1010800007D06868C0F38100022809D16868C003EE
:1010900006D52868800339D560680028E7D035E098
:1010A0006068B0F5803F0BD010B1B0F5A02F11D023
:1010B000286820F480302860286820F4802002E02E
:1010C000286840F480302860606890B1FFF7DCFD4C
:1010D00006460AE0286840F480202860F0E700BF58
:1010E000FFF7D2FD801B642873D828688003F7D5EA
:1010F0000CE0FFF7C9FD064605E000BFFFF7C4FDA1
:10110000801B6428F0D828688003F7D420789A4E92
:1011100080074FF001094FF0000839D5686810F0DA
:101120000C0F07D06868C0F38100022809D16868F5
:10113000C00306D42868800714D52069012808D187
:1011400010E02069B0B1C6F80090FFF79DFD07469A
:1011500005E00AE1FFF798FDC01B0228C4D8286803
:101160008007F7D52868616920F0F80040EAC100DF
:1011700028600DE0C6F80080FFF786FD074604E012
:10118000FFF782FDC01B022823D828688007F7D408
:10119000207800072CD57948A169D9B1C0F8009012
:1011A000FFF772FD074604E0FFF76EFDC01B022843
:1011B0000FD8686A8007F7D571484FF4FA51006874
:1011C000B0FBF1F0009000BF0098411E0091FAD2F0
:1011D0000EE080E0C0F80080FFF756FD074604E00F
:1011E000FFF752FDC01B022875D8686A8007F7D444
:1011F0002078400760D5E8690027C00008D4E86976
:1012000040F08050E861E869012700F080500090CC
:101210005C480168C90513D40168834641F48071B4
:101220000160FFF731FD824606E000BFFFF72CFDAD
:10123000A0EB0A0064284ED8DBF80000C005F5D505
:10124000E06801280AD008B1052813D0286A20F0E8
:1012500001002862286A20F0040002E0286A40F0B9
:1012600001002862E06841F2883B98B1FFF70CFD6D
:1012700082460BE0286A40F004002862EEE700BFD7
:10128000FFF702FDA0EB0A0159455AD8286A8007EA
:10129000F6D50CE0FFF7F8FC824605E0FFF7F4FC1A
:1012A000A0EB0A0159454CD8286A8007F6D41FB133
:1012B000E86920F08050E861E06988B36968C1F3AB
:1012C0008101022944D00228C6F8608004D0FFF7CB
:1012D000DBFC044638E034E0FFF7D6FC074604E0C8
:1012E000FFF7D2FCC01B02282BD828688001F7D456
:1012F000206AB0F5803F05D16868A16820F400300D
:1013000008436860D4E908010843696821F474114E
:1013100008436860C6F86090FFF7B6FC044606E034
:1013200025E000BFFFF7B0FC001B022809D82868A1
:101330008001F7D51BE000BFFFF7A6FC001B0228C9
:1013400002D90320BDE8F88F28688001F4D40EE0AC
:101350000128F7D06868226A00F48031914204D1F4
:10136000616A00F47010884201D00120EAE7002091
:10137000E8E70000001002400000424280044242C0
:10138000240000200070004010B5401EB0F1807FA6
:1013900001D3012010BD4FF0E02460610F216017E0
:1013A00000F0F8F90020A06107202061002010BDA6
:1013B00070B5040004D094F84100002510B106E097
:1013C000012070BD84F84050204600F023F824200E
:1013D00084F841002068C16821F40051C1602046B2
:1013E00000F042F92068016921F490410161206810
:1013F000416921F02A0141612068C16841F400512E
:10140000C1606564202084F8410084F8420065636F
:10141000002070BD30B585B0002400940194029482
:10142000039400681449884224D11448816941F426
:1014300080418161816901F480410491816941F0B9
:101440000401816180690E4D00F0040004904FF4A6
:101450000070009002200190032003906946284606
:10146000FFF722FB2815CDE90004694628460294BF
:10147000FFF71AFB05B030BD0038014000100240F4
:10148000000801402DE9F843044690F841009846D1
:1014900016460D46202802D00220BDE8F88385B10B
:1014A0007EB100206064212084F84100FFF7ECFB4E
:1014B000A6848146E684A0682027B0F5805F02D02C
:1014C00003E00120E9E7206910B12E4600250EE077
:1014D00000260CE08021204600F022F9A8B9C6B110
:1014E00016F8010B21684860E08C401EE084E08C17
:1014F0004B464FF00002CDF800800028EAD14FF0B3
:101500004001204600F00CF940B184F841700320FE
:10151000C3E735F8020BC0F30800E3E784F8417035
:101520000020BAE7FEE70000FEB500241B48009447
:1015300001941949029401608915816001250573A0
:101540000475032606614FF460214460C161FFF712
:101550002DF808B172B6FEE707200094CDE90150DE
:1015600069460E48FEF7A0FF08B172B6FEE70224F6
:10157000CDE9005469460948FEF796FF08B172B6F6
:10158000FEE7CDE9004669460448FEF78DFF0028D6
:1015900001D072B6FEE7FEBD002401402800002005
:1015A000FEE7FEE770477047FFF774BB30B593B0B6
:1015B00028216846FEF714FE14210AA8FEF710FE43
:1015C000002401200F94022504900095102005901E
:1015D000109411941294CDE9075468460994FFF7CA
:1015E00043FD08B172B6FEE70F200A90CDE90B5417
:1015F0000D9400210AA80E94FFF75AFC08B172B6A8
:10160000FEE70FA80F951194FFF7DCFB002801D02F
:1016100072B6FEE713B030BD704701680C3151E877
:10162000002F22F4907241E80023002BF5D10168CD
:10163000143151E8002F22F0010241E80023002B71
:10164000F5D1016B012909D101680C3151E8002F56
:1016500022F0100241E80023002BF5D1202180F870
:10166000421000210163704770B5044600680169AB
:10167000E26821F44051114301612169A0680843E7
:10168000616908432168CA6841F20C639A430243C6
:10169000CA6020684169A26921F440711143416127
:1016A0001E492068884202D1FFF7A8FC01E0FFF73D
:1016B00095FC00EBC00101EB001260686421800022
:1016C000B2FBF0F3B3FBF1F36FF018067343B2FB18
:1016D000F0F5B2FBF0F605EB8305322303EB0515BD
:1016E000B5FBF1F5B6FBF1F605F0F00505EB0615D7
:1016F000B2FBF0F6B2FBF0F0B0FBF1F06FF01802C5
:10170000504306EB800003EB0010B0FBF1F02168C2
:1017100000F00F002844886070BD000000380140D0
:101720002DE9F843984617460D460446089E24E0E6
:10173000701C22D0FFF7A8FAA0EB0800B0421AD81C
:10174000CEB12068C168490717D5802D15D0402D2E
:1017500013D00168C94309070FD401680025406808
:1017600000902046FFF759FF0820606484F840503D
:101770000120BDE8F8830320FBE72068006835EA14
:10178000000004D00020B842D2D00020F1E70120B0
:10179000F9E7FEE70907090E002804DB00F1E02065
:1017A00080F80014704700F00F0000F1E02080F88E
:1017B000141D70472DE9F05F4FF000083D4FDFF832
:1017C000F890DFF8F8A0DFF8F8B045464646444602
:1017D0003888A0F2FE7000F02FFA494600F06AF94E
:1017E000514600F041FA594600F064F9414600F0D4
:1017F000FFF880467888A0F63A0000F01DFA4946C6
:1018000000F058F9514600F02FFA594600F052F90D
:10181000294600F0EDF80546B888A0F6A11000F0C2
:101820000BFA494600F046F9514600F01DFA5946B8
:1018300000F040F9314600F0DBF806460220FFF7E1
:1018400021F9641C052CC3DBDFF87890404649463B
:1018500000F030F9174F04460C3F494638602846DF
:1018600000F028F9054678604946304600F022F934
:101870001549B8608C4201DD14A017E0164A944265
:1018800001D916A012E08D4201DD17A00EE09542AD
:1018900001D918A00AE01B49884201DD1AA005E021
:1018A0001B49884201D31BA000E01DA0BDE8F05FEA
:1018B000FEF78ABC0C00002000F07F453333534014
:1018C0009A99993E0000A0400AD7233C3F205269D4
:1018D0006768740D0A0000000AD723BC3F204C65DE
:1018E00066740D0A000000003F20466F7277617237
:1018F000640D0A003F204261636B776172640D0AD8
:10190000000000000AD7A33C3F2055700D0A0000DC
:101910000AD7A3BC3F20446F776E0D0A0000000079
:101920004E6F206D6F76656D656E740D0A00000058
:101930000020704713B54FF6FF7301226946024835
:10194000FFF7A0FD00981CBD5800002008B5FFF768
:10195000A9F9FFF72BFE2248816941F0200181613E
:10196000816901F020010091816941F004018161E8
:10197000816901F004010091416941F00101416177
:101980004069002200F00100009011460B20FFF793
:10199000E7F90B20FFF7D6F9FFF7C6FD124811490A
:1019A0000C2201604FF4E131416000218160C1608F
:1019B000C0E904128161C161FFF7FAFC08B172B697
:1019C000FEE70948032209493038FEF7C5FE4FF407
:1019D000FA7400BFFFF7EEFE2046FFF753F8F9E771
:1019E0000010024000380140580000200C00002088
:1019F00090EA010F48BF81F0004100F10882421ACD
:101A00003CBF801A89184FEAD0524FF07F4C1CEA35
:101A1000410FA2EBD15318BF9CEA026F00F03B804C
:101A20004FF0004C4CEA00204CEA012121FA03FC63
:101A300010EB0C0C1ED202F1FF325FEA1C2040EBCF
:101A4000C25038BF70471CF07F0F4FEA400C18BFE0
:101A5000BCF17F4F38BF7047C3F12003994008BFE6
:101A600020F00100BCF17F4F38BF7047A0F1C040AB
:101A700000F0C1B94FEA3C00000A40EBC25028BF59
:101A80001CF0FF0F4FEA400CE6D018BFBCF17F4FAF
:101A900038BF7047EAE79CEA026F05D010EA5C0F96
:101AA00008BF00F00040704710B500F05EF900BFBD
:101AB00064FBBE3E4FF47F0C1CEAD0121EBF1CEA32
:101AC000D11392EA0C0F93EA0C0F00F0858090EA94
:101AD000010F48BF42F4807240F4000C41F4000052
:101AE0002CF07F4120F07F4000B58142A2EB030241
:101AF0000FF2081CACEB504EC0F100009EF800E065
:101B00004FEA4E0E00FB0EFC38BF49004FEA2C1C7A
:101B100002F5FA020CFB0EF34FEACE1E4FEA112C2F
:101B20004FEAC1210EEB635E42EB22420EFB0CFC3E
:101B30004FEA1C5300FB03114FEA112C4FEA01310D
:101B40000EFB0CFC4FEADC4C00FB0C11C14228BF21
:101B500009184CEB03335DF804EB10EB410143EB48
:101B6000C250B2F57C0F38BF704729D512F0F00F84
:101B70001CBF00F1C04000F000407047008182832C
:101B80008485868788898B8C8D8E8F91929395968C
:101B900097999A9C9D9FA0A2A3A5A7A8AAACAEB016
:101BA000B2B3B5B7B9BCBEC0C2C5C7C9CCCED1D41B
:101BB000D7D9DCDFE2E6E9ECF0F3F7FAFE0000004B
:101BC0004FEA400C0CF1807CBCF17E4F28BF70477F
:101BD000B0F1C04000F00FB990EA010F0CEAD11348
:101BE00048BF42F48072624538BF634507D213F4A0
:101BF0007F0F16D080EA010000F00040704710B55A
:101C000000F0B3F8097EFC3E00F005B880EA010060
:101C100000F00040704780EA010000F0004000F052
:101C2000EAB812F47F0F04BF0248704780EA01004F
:101C300000F0E1B80000C07F10F0004148BF404212
:101C4000B0FA80F310FA03F2C3F19D030BD051EA0E
:101C5000C35101EB1220530638BF704700F1010059
:101C600008BF20F0010070474FF47F0C1CEAD0122F
:101C70001EBF1CEAD11392EA0C0F93EA0C0F00F07E
:101C8000478090EA010F48BF42F480724FF0004C49
:101C90004CEA00204CEA012102EB0302A0FB0113F5
:101CA000A2F50002002918BF43F001035B0028BF22
:101CB0004FEA330342EB22425FEA132C4CEBC25053
:101CC0002EBFBCEB436FB2F57C0F70474FEA036C3D
:101CD000BCF1004F08BF20F00100B2F57C0F38BF07
:101CE00070470BD582F0FF0212F5803FC8BF7047E6
:101CF00000F1C040D8BF00F00040704700F5000C74
:101D00005FEA4C0C48BF7047B0F1C04000F073B8B8
:101D100090EA010F0CEAD11348BF42F48072624589
:101D200038BF634504D280EA010000F000407047EC
:101D300010B500F01AF800BF8900013E00F007B8A6
:101D400000F009B85FEA410C5FEA1C6C08D080EA39
:101D5000010000F050B85FEA400C5FEA1C6CF6D15D
:101D60004FF00040A0F5800070470EF1020E2EF0FB
:101D7000030E5EF8044B244204D44FEA4102B2F150
:101D80007F4F11D84FEA4003B3F17F4F0CD80ED1EB
:101D90004FEAD07CB2F17F4F0CEB4C0C0CF1020CF3
:101DA00008BF4CEBD17C04E04FF0080C01E04FEA97
:101DB000D17C0CEB4C0324FA03F404F00704B4F1D7
:101DC000040C06D20EEB840CBDE810404CF0010C64
:101DD0006047DFE80CF0070802024FF00040A0F572
:101DE000800010BD0846420018BFD2F1807288BF43
:101DF00000F0004010BDFF2141EAD050C0057047FF
:101E000090EA010F48BF81F000413FF5F8AD421A5A
:101E100004D882F00042A0EB020011444FEAD052F5
:101E20004FF07F4C1CEA410FA2EBD15318BF9CEA44
:101E3000026F4AD04FF0004C4CEA00204CEA0121DE
:101E400021FA03FCB0EB0C0C0FD412F0FE0F36D0CD
:101E50005FEA4C001DD5001240EBC25038BF7047FE
:101E60001CF03F0F18BF70470BE0A2F101025FEAC0
:101E70001C2040EBC25038BF70471CF07F0F18BFCA
:101E80007047C3F12003994014BF401E20F00100A9
:101E9000704780084FEA122308BF7047B0FA80FCF1
:101EA000A2EB0C02CCF1280C60FA0CF093EA122F92
:101EB00004BF00EBC25070474FEAC3707047130A6B
:101EC0005FEADC1008BF7047F6E79CEA026F04D0B7
:101ED00010EA5C0F08BF0020704710B5FFF745FF00
:101EE00040DFF63E81F00040704701020203040526
:101EF000060708090A0B0C0D0E0F10100000000059
:101F000000000000010203040607080900000000A9
:101F100001020304341F0008000000202800000014
:101F2000280100085C1F000828000020200700008E
:101F30004401000800000000000000000000000054
:101F40000000000000000000000000000100000090
:0C1F5000100000000000000000127A00E9
:04000005080000ED02
:00000001FF
